{
  "contractName": "TellonymContract",
  "abi": [
    {
      "inputs": [],
      "stateMutability": "nonpayable",
      "type": "constructor"
    },
    {
      "inputs": [],
      "name": "owner",
      "outputs": [
        {
          "internalType": "address",
          "name": "",
          "type": "address"
        }
      ],
      "stateMutability": "view",
      "type": "function",
      "constant": true
    },
    {
      "inputs": [
        {
          "internalType": "uint256",
          "name": "",
          "type": "uint256"
        }
      ],
      "name": "tells",
      "outputs": [
        {
          "internalType": "string",
          "name": "",
          "type": "string"
        }
      ],
      "stateMutability": "view",
      "type": "function",
      "constant": true
    },
    {
      "inputs": [
        {
          "internalType": "string",
          "name": "tell",
          "type": "string"
        }
      ],
      "name": "addTell",
      "outputs": [],
      "stateMutability": "nonpayable",
      "type": "function"
    },
    {
      "inputs": [],
      "name": "getTells",
      "outputs": [
        {
          "internalType": "string[]",
          "name": "",
          "type": "string[]"
        }
      ],
      "stateMutability": "view",
      "type": "function",
      "constant": true
    },
    {
      "inputs": [
        {
          "internalType": "string",
          "name": "tell",
          "type": "string"
        }
      ],
      "name": "removeTell",
      "outputs": [],
      "stateMutability": "nonpayable",
      "type": "function"
    }
  ],
  "bytecode": "0x608060405234801561001057600080fd5b50336000806101000a81548173ffffffffffffffffffffffffffffffffffffffff021916908373ffffffffffffffffffffffffffffffffffffffff160217905550610cd1806100606000396000f3fe608060405234801561001057600080fd5b50600436106100575760003560e01c806330fc7d581461005c57806348b6725c146100785780637c0fe400146100965780638da5cb5b146100b2578063c0ad3b7f146100d0575b600080fd5b610076600480360381019061007191906106cb565b610100565b005b61008061013f565b60405161008d9190610938565b60405180910390f35b6100b060048036038101906100ab91906106cb565b610218565b005b6100ba61040e565b6040516100c7919061091d565b60405180910390f35b6100ea60048036038101906100e5919061070c565b610432565b6040516100f7919061095a565b60405180910390f35b60018190806001815401808255809150506001900390600052602060002001600090919091909150908051906020019061013b9291906104de565b5050565b60606001805480602002602001604051908101604052809291908181526020016000905b8282101561020f57838290600052602060002001805461018290610b6b565b80601f01602080910402602001604051908101604052809291908181526020018280546101ae90610b6b565b80156101fb5780601f106101d0576101008083540402835291602001916101fb565b820191906000526020600020905b8154815290600101906020018083116101de57829003601f168201915b505050505081526020019060010190610163565b50505050905090565b60005b60018054905081101561040a578160405160200161023991906108ef565b6040516020818303038152906040528051906020012060018281548110610289577f4e487b7100000000000000000000000000000000000000000000000000000000600052603260045260246000fd5b906000526020600020016040516020016102a39190610906565b6040516020818303038152906040528051906020012014156103f75760008190505b600180805490506102d69190610ab9565b81101561039b57600180826102eb9190610a63565b81548110610322577f4e487b7100000000000000000000000000000000000000000000000000000000600052603260045260246000fd5b9060005260206000200160018281548110610366577f4e487b7100000000000000000000000000000000000000000000000000000000600052603260045260246000fd5b9060005260206000200190805461037c90610b6b565b610387929190610564565b50808061039390610b9d565b9150506102c5565b5060018054806103d4577f4e487b7100000000000000000000000000000000000000000000000000000000600052603160045260246000fd5b6001900381819060005260206000200160006103f091906105f1565b905561040a565b808061040290610b9d565b91505061021b565b5050565b60008054906101000a900473ffffffffffffffffffffffffffffffffffffffff1681565b6001818154811061044257600080fd5b90600052602060002001600091509050805461045d90610b6b565b80601f016020809104026020016040519081016040528092919081815260200182805461048990610b6b565b80156104d65780601f106104ab576101008083540402835291602001916104d6565b820191906000526020600020905b8154815290600101906020018083116104b957829003601f168201915b505050505081565b8280546104ea90610b6b565b90600052602060002090601f01602090048101928261050c5760008555610553565b82601f1061052557805160ff1916838001178555610553565b82800160010185558215610553579182015b82811115610552578251825591602001919060010190610537565b5b5090506105609190610631565b5090565b82805461057090610b6b565b90600052602060002090601f01602090048101928261059257600085556105e0565b82601f106105a357805485556105e0565b828001600101855582156105e057600052602060002091601f016020900482015b828111156105df5782548255916001019190600101906105c4565b5b5090506105ed9190610631565b5090565b5080546105fd90610b6b565b6000825580601f1061060f575061062e565b601f01602090049060005260206000209081019061062d9190610631565b5b50565b5b8082111561064a576000816000905550600101610632565b5090565b600061066161065c846109ad565b61097c565b90508281526020810184848401111561067957600080fd5b610684848285610b29565b509392505050565b600082601f83011261069d57600080fd5b81356106ad84826020860161064e565b91505092915050565b6000813590506106c581610c84565b92915050565b6000602082840312156106dd57600080fd5b600082013567ffffffffffffffff8111156106f757600080fd5b6107038482850161068c565b91505092915050565b60006020828403121561071e57600080fd5b600061072c848285016106b6565b91505092915050565b600061074183836107cd565b905092915050565b61075281610aed565b82525050565b600061076382610a02565b61076d8185610a25565b93508360208202850161077f856109dd565b8060005b858110156107bb578484038952815161079c8582610735565b94506107a783610a18565b925060208a01995050600181019050610783565b50829750879550505050505092915050565b60006107d882610a0d565b6107e28185610a36565b93506107f2818560208601610b38565b6107fb81610c73565b840191505092915050565b600061081182610a0d565b61081b8185610a47565b935061082b818560208601610b38565b61083481610c73565b840191505092915050565b600061084a82610a0d565b6108548185610a58565b9350610864818560208601610b38565b80840191505092915050565b6000815461087d81610b6b565b6108878186610a58565b945060018216600081146108a257600181146108b3576108e6565b60ff198316865281860193506108e6565b6108bc856109ed565b60005b838110156108de578154818901526001820191506020810190506108bf565b838801955050505b50505092915050565b60006108fb828461083f565b915081905092915050565b60006109128284610870565b915081905092915050565b60006020820190506109326000830184610749565b92915050565b600060208201905081810360008301526109528184610758565b905092915050565b600060208201905081810360008301526109748184610806565b905092915050565b6000604051905081810181811067ffffffffffffffff821117156109a3576109a2610c44565b5b8060405250919050565b600067ffffffffffffffff8211156109c8576109c7610c44565b5b601f19601f8301169050602081019050919050565b6000819050602082019050919050565b60008190508160005260206000209050919050565b600081519050919050565b600081519050919050565b6000602082019050919050565b600082825260208201905092915050565b600082825260208201905092915050565b600082825260208201905092915050565b600081905092915050565b6000610a6e82610b1f565b9150610a7983610b1f565b9250827fffffffffffffffffffffffffffffffffffffffffffffffffffffffffffffffff03821115610aae57610aad610be6565b5b828201905092915050565b6000610ac482610b1f565b9150610acf83610b1f565b925082821015610ae257610ae1610be6565b5b828203905092915050565b6000610af882610aff565b9050919050565b600073ffffffffffffffffffffffffffffffffffffffff82169050919050565b6000819050919050565b82818337600083830152505050565b60005b83811015610b56578082015181840152602081019050610b3b565b83811115610b65576000848401525b50505050565b60006002820490506001821680610b8357607f821691505b60208210811415610b9757610b96610c15565b5b50919050565b6000610ba882610b1f565b91507fffffffffffffffffffffffffffffffffffffffffffffffffffffffffffffffff821415610bdb57610bda610be6565b5b600182019050919050565b7f4e487b7100000000000000000000000000000000000000000000000000000000600052601160045260246000fd5b7f4e487b7100000000000000000000000000000000000000000000000000000000600052602260045260246000fd5b7f4e487b7100000000000000000000000000000000000000000000000000000000600052604160045260246000fd5b6000601f19601f8301169050919050565b610c8d81610b1f565b8114610c9857600080fd5b5056fea26469706673582212204db3943678941e1251245239fc199f7e6a20e4e82069e469ba4ecaf4d305e4ae64736f6c63430008000033",
  "immutableReferences": {},
  "source": "// SPDX-License-Identifier: UNLICENSED\r\npragma solidity ^0.8.0;\r\n\r\ncontract TellonymContract {\r\n    address public owner;\r\n    string[] public tells;\r\n\r\n    constructor() {\r\n        owner = msg.sender;\r\n    }\r\n\r\n    function addTell(string memory tell) public {\r\n        tells.push(tell);\r\n    }\r\n\r\n    function getTells() public view returns (string[] memory) {\r\n        return tells;\r\n    }\r\n\r\n    function removeTell(string memory tell) public {\r\n        for (uint i = 0; i < tells.length; i++) {\r\n            if (keccak256(abi.encodePacked(tells[i])) == keccak256(abi.encodePacked(tell))) {\r\n                for (uint j = i; j < tells.length - 1; j++) {\r\n                    tells[j] = tells[j + 1];\r\n                }\r\n                tells.pop();\r\n                break;\r\n            }\r\n        }\r\n    }\r\n}\r\n",
  "sourcePath": "C:\\Users\\vaide\\jake\\tellonym-web3\\contracts\\main.sol",
  "compiler": {
    "name": "solc",
    "version": "0.8.0+commit.c7dfd78e.Emscripten.clang"
  },
  "schemaVersion": "3.4.16",
  "updatedAt": "2023-10-26T09:37:41.445Z",
  "networkType": "ethereum",
  "devdoc": {
    "kind": "dev",
    "methods": {},
    "version": 1
  },
  "userdoc": {
    "kind": "user",
    "methods": {},
    "version": 1
  }
}