{
  "contractName": "SimpleStorage",
  "abi": [
    {
      "inputs": [],
      "stateMutability": "nonpayable",
      "type": "constructor"
    },
    {
      "inputs": [],
      "name": "owner",
      "outputs": [
        {
          "internalType": "address",
          "name": "",
          "type": "address"
        }
      ],
      "stateMutability": "view",
      "type": "function",
      "constant": true
    },
    {
      "inputs": [],
      "name": "storedValue",
      "outputs": [
        {
          "internalType": "uint256",
          "name": "",
          "type": "uint256"
        }
      ],
      "stateMutability": "view",
      "type": "function",
      "constant": true
    },
    {
      "inputs": [
        {
          "internalType": "uint256",
          "name": "newValue",
          "type": "uint256"
        }
      ],
      "name": "set",
      "outputs": [],
      "stateMutability": "nonpayable",
      "type": "function"
    },
    {
      "inputs": [],
      "name": "get",
      "outputs": [
        {
          "internalType": "uint256",
          "name": "",
          "type": "uint256"
        }
      ],
      "stateMutability": "view",
      "type": "function",
      "constant": true
    }
  ],
  "bytecode": "0x608060405234801561001057600080fd5b50336000806101000a81548173ffffffffffffffffffffffffffffffffffffffff021916908373ffffffffffffffffffffffffffffffffffffffff16021790555061031f806100606000396000f3fe608060405234801561001057600080fd5b506004361061004c5760003560e01c806360fe47b1146100515780636d4ce63c1461006d5780636d619daa1461008b5780638da5cb5b146100a9575b600080fd5b61006b600480360381019061006691906101a8565b6100c7565b005b61007561015f565b604051610082919061026a565b60405180910390f35b610093610169565b6040516100a0919061026a565b60405180910390f35b6100b161016f565b6040516100be919061022f565b60405180910390f35b60008054906101000a900473ffffffffffffffffffffffffffffffffffffffff1673ffffffffffffffffffffffffffffffffffffffff163373ffffffffffffffffffffffffffffffffffffffff1614610155576040517f08c379a000000000000000000000000000000000000000000000000000000000815260040161014c9061024a565b60405180910390fd5b8060018190555050565b6000600154905090565b60015481565b60008054906101000a900473ffffffffffffffffffffffffffffffffffffffff1681565b6000813590506101a2816102d2565b92915050565b6000602082840312156101ba57600080fd5b60006101c884828501610193565b91505092915050565b6101da81610296565b82525050565b60006101ed602083610285565b91507f4f6e6c7920746865206f776e65722063616e20736574207468652076616c75656000830152602082019050919050565b610229816102c8565b82525050565b600060208201905061024460008301846101d1565b92915050565b60006020820190508181036000830152610263816101e0565b9050919050565b600060208201905061027f6000830184610220565b92915050565b600082825260208201905092915050565b60006102a1826102a8565b9050919050565b600073ffffffffffffffffffffffffffffffffffffffff82169050919050565b6000819050919050565b6102db816102c8565b81146102e657600080fd5b5056fea264697066735822122056d855adeaf54f7144e020906f278dbb1a7919e15340eeb30d83433c74e7f0f164736f6c63430008000033",
  "immutableReferences": {},
  "source": "// SPDX-License-Identifier: MIT\r\npragma solidity >=0.4.22 <0.9.0;\r\n\r\ncontract SimpleStorage {\r\n    address public owner;\r\n    uint256 public storedValue;\r\n\r\n    constructor() {\r\n        owner = msg.sender;\r\n    }\r\n\r\n    function set(uint256 newValue) public {\r\n        require(msg.sender == owner, \"Only the owner can set the value\");\r\n        storedValue = newValue;\r\n    }\r\n\r\n    function get() public view returns (uint256) {\r\n        return storedValue;\r\n    }\r\n}\r\n",
  "sourcePath": "C:\\Users\\vaide\\jake\\tellonym-web3\\contracts\\SimpleStorage.sol",
  "compiler": {
    "name": "solc",
    "version": "0.8.0+commit.c7dfd78e.Emscripten.clang"
  },
  "schemaVersion": "3.4.16",
  "updatedAt": "2023-11-02T10:53:14.570Z",
  "networkType": "ethereum",
  "devdoc": {
    "kind": "dev",
    "methods": {},
    "version": 1
  },
  "userdoc": {
    "kind": "user",
    "methods": {},
    "version": 1
  }
}